{
    "contractName": "XENFT",
    "abi": [
        {
            "inputs": [
                {
                    "internalType": "address",
                    "name": "xenCrypto_",
                    "type": "address"
                }
            ],
            "stateMutability": "nonpayable",
            "type": "constructor"
        },
        {
            "anonymous": false,
            "inputs": [
                {
                    "indexed": true,
                    "internalType": "address",
                    "name": "owner",
                    "type": "address"
                },
                {
                    "indexed": true,
                    "internalType": "address",
                    "name": "approved",
                    "type": "address"
                },
                {
                    "indexed": true,
                    "internalType": "uint256",
                    "name": "tokenId",
                    "type": "uint256"
                }
            ],
            "name": "Approval",
            "type": "event"
        },
        {
            "anonymous": false,
            "inputs": [
                {
                    "indexed": true,
                    "internalType": "address",
                    "name": "owner",
                    "type": "address"
                },
                {
                    "indexed": true,
                    "internalType": "address",
                    "name": "operator",
                    "type": "address"
                },
                {
                    "indexed": false,
                    "internalType": "bool",
                    "name": "approved",
                    "type": "bool"
                }
            ],
            "name": "ApprovalForAll",
            "type": "event"
        },
        {
            "anonymous": false,
            "inputs": [
                {
                    "indexed": true,
                    "internalType": "address",
                    "name": "user",
                    "type": "address"
                },
                {
                    "indexed": false,
                    "internalType": "uint256",
                    "name": "tokenId",
                    "type": "uint256"
                },
                {
                    "indexed": false,
                    "internalType": "address",
                    "name": "to",
                    "type": "address"
                }
            ],
            "name": "EndTorrent",
            "type": "event"
        },
        {
            "anonymous": false,
            "inputs": [
                {
                    "indexed": true,
                    "internalType": "address",
                    "name": "user",
                    "type": "address"
                },
                {
                    "indexed": false,
                    "internalType": "uint256",
                    "name": "count",
                    "type": "uint256"
                },
                {
                    "indexed": false,
                    "internalType": "uint256",
                    "name": "term",
                    "type": "uint256"
                }
            ],
            "name": "StartTorrent",
            "type": "event"
        },
        {
            "anonymous": false,
            "inputs": [
                {
                    "indexed": true,
                    "internalType": "address",
                    "name": "from",
                    "type": "address"
                },
                {
                    "indexed": true,
                    "internalType": "address",
                    "name": "to",
                    "type": "address"
                },
                {
                    "indexed": true,
                    "internalType": "uint256",
                    "name": "tokenId",
                    "type": "uint256"
                }
            ],
            "name": "Transfer",
            "type": "event"
        },
        {
            "inputs": [],
            "name": "COLORS_HALF_SCALE",
            "outputs": [
                {
                    "internalType": "uint256",
                    "name": "",
                    "type": "uint256"
                }
            ],
            "stateMutability": "view",
            "type": "function"
        },
        {
            "inputs": [],
            "name": "DEFAULT_LUMINOSITY",
            "outputs": [
                {
                    "internalType": "uint256",
                    "name": "",
                    "type": "uint256"
                }
            ],
            "stateMutability": "view",
            "type": "function"
        },
        {
            "inputs": [],
            "name": "DEFAULT_OPACITY",
            "outputs": [
                {
                    "internalType": "uint256",
                    "name": "",
                    "type": "uint256"
                }
            ],
            "stateMutability": "view",
            "type": "function"
        },
        {
            "inputs": [],
            "name": "DEFAULT_SATURATION",
            "outputs": [
                {
                    "internalType": "uint256",
                    "name": "",
                    "type": "uint256"
                }
            ],
            "stateMutability": "view",
            "type": "function"
        },
        {
            "inputs": [
                {
                    "internalType": "uint256",
                    "name": "",
                    "type": "uint256"
                }
            ],
            "name": "HUES_LIMITED1",
            "outputs": [
                {
                    "internalType": "uint256",
                    "name": "",
                    "type": "uint256"
                }
            ],
            "stateMutability": "view",
            "type": "function"
        },
        {
            "inputs": [
                {
                    "internalType": "uint256",
                    "name": "",
                    "type": "uint256"
                }
            ],
            "name": "HUES_LIMITED2",
            "outputs": [
                {
                    "internalType": "uint256",
                    "name": "",
                    "type": "uint256"
                }
            ],
            "stateMutability": "view",
            "type": "function"
        },
        {
            "inputs": [],
            "name": "LIMITED_SERIES_COUNT",
            "outputs": [
                {
                    "internalType": "uint256",
                    "name": "",
                    "type": "uint256"
                }
            ],
            "stateMutability": "view",
            "type": "function"
        },
        {
            "inputs": [],
            "name": "LIMITED_SERIES_VMU_THRESHOLD",
            "outputs": [
                {
                    "internalType": "uint256",
                    "name": "",
                    "type": "uint256"
                }
            ],
            "stateMutability": "view",
            "type": "function"
        },
        {
            "inputs": [],
            "name": "LIMITED_SERIES_VMU_THRESHOLD1",
            "outputs": [
                {
                    "internalType": "uint256",
                    "name": "",
                    "type": "uint256"
                }
            ],
            "stateMutability": "view",
            "type": "function"
        },
        {
            "inputs": [],
            "name": "MAX_TERM",
            "outputs": [
                {
                    "internalType": "uint256",
                    "name": "",
                    "type": "uint256"
                }
            ],
            "stateMutability": "view",
            "type": "function"
        },
        {
            "inputs": [
                {
                    "internalType": "uint256",
                    "name": "",
                    "type": "uint256"
                }
            ],
            "name": "STOP_OFFSETS",
            "outputs": [
                {
                    "internalType": "uint256",
                    "name": "",
                    "type": "uint256"
                }
            ],
            "stateMutability": "view",
            "type": "function"
        },
        {
            "inputs": [
                {
                    "internalType": "address",
                    "name": "to",
                    "type": "address"
                },
                {
                    "internalType": "uint256",
                    "name": "tokenId",
                    "type": "uint256"
                }
            ],
            "name": "approve",
            "outputs": [],
            "stateMutability": "nonpayable",
            "type": "function"
        },
        {
            "inputs": [
                {
                    "internalType": "address",
                    "name": "owner",
                    "type": "address"
                }
            ],
            "name": "balanceOf",
            "outputs": [
                {
                    "internalType": "uint256",
                    "name": "",
                    "type": "uint256"
                }
            ],
            "stateMutability": "view",
            "type": "function"
        },
        {
            "inputs": [
                {
                    "internalType": "uint256",
                    "name": "tokenId",
                    "type": "uint256"
                }
            ],
            "name": "getApproved",
            "outputs": [
                {
                    "internalType": "address",
                    "name": "",
                    "type": "address"
                }
            ],
            "stateMutability": "view",
            "type": "function"
        },
        {
            "inputs": [
                {
                    "internalType": "address",
                    "name": "owner",
                    "type": "address"
                },
                {
                    "internalType": "address",
                    "name": "operator",
                    "type": "address"
                }
            ],
            "name": "isApprovedForAll",
            "outputs": [
                {
                    "internalType": "bool",
                    "name": "",
                    "type": "bool"
                }
            ],
            "stateMutability": "view",
            "type": "function"
        },
        {
            "inputs": [],
            "name": "limitedSeriesCounter",
            "outputs": [
                {
                    "internalType": "uint256",
                    "name": "",
                    "type": "uint256"
                }
            ],
            "stateMutability": "view",
            "type": "function"
        },
        {
            "inputs": [
                {
                    "internalType": "uint256",
                    "name": "",
                    "type": "uint256"
                }
            ],
            "name": "mintInfo",
            "outputs": [
                {
                    "internalType": "uint256",
                    "name": "",
                    "type": "uint256"
                }
            ],
            "stateMutability": "view",
            "type": "function"
        },
        {
            "inputs": [],
            "name": "name",
            "outputs": [
                {
                    "internalType": "string",
                    "name": "",
                    "type": "string"
                }
            ],
            "stateMutability": "view",
            "type": "function"
        },
        {
            "inputs": [
                {
                    "internalType": "uint256",
                    "name": "tokenId",
                    "type": "uint256"
                }
            ],
            "name": "ownerOf",
            "outputs": [
                {
                    "internalType": "address",
                    "name": "",
                    "type": "address"
                }
            ],
            "stateMutability": "view",
            "type": "function"
        },
        {
            "inputs": [
                {
                    "internalType": "address",
                    "name": "from",
                    "type": "address"
                },
                {
                    "internalType": "address",
                    "name": "to",
                    "type": "address"
                },
                {
                    "internalType": "uint256",
                    "name": "tokenId",
                    "type": "uint256"
                }
            ],
            "name": "safeTransferFrom",
            "outputs": [],
            "stateMutability": "nonpayable",
            "type": "function"
        },
        {
            "inputs": [
                {
                    "internalType": "address",
                    "name": "from",
                    "type": "address"
                },
                {
                    "internalType": "address",
                    "name": "to",
                    "type": "address"
                },
                {
                    "internalType": "uint256",
                    "name": "tokenId",
                    "type": "uint256"
                },
                {
                    "internalType": "bytes",
                    "name": "data",
                    "type": "bytes"
                }
            ],
            "name": "safeTransferFrom",
            "outputs": [],
            "stateMutability": "nonpayable",
            "type": "function"
        },
        {
            "inputs": [
                {
                    "internalType": "address",
                    "name": "operator",
                    "type": "address"
                },
                {
                    "internalType": "bool",
                    "name": "approved",
                    "type": "bool"
                }
            ],
            "name": "setApprovalForAll",
            "outputs": [],
            "stateMutability": "nonpayable",
            "type": "function"
        },
        {
            "inputs": [
                {
                    "internalType": "bytes4",
                    "name": "interfaceId",
                    "type": "bytes4"
                }
            ],
            "name": "supportsInterface",
            "outputs": [
                {
                    "internalType": "bool",
                    "name": "",
                    "type": "bool"
                }
            ],
            "stateMutability": "view",
            "type": "function"
        },
        {
            "inputs": [],
            "name": "symbol",
            "outputs": [
                {
                    "internalType": "string",
                    "name": "",
                    "type": "string"
                }
            ],
            "stateMutability": "view",
            "type": "function"
        },
        {
            "inputs": [],
            "name": "tokenIdCounter",
            "outputs": [
                {
                    "internalType": "uint256",
                    "name": "",
                    "type": "uint256"
                }
            ],
            "stateMutability": "view",
            "type": "function"
        },
        {
            "inputs": [
                {
                    "internalType": "address",
                    "name": "from",
                    "type": "address"
                },
                {
                    "internalType": "address",
                    "name": "to",
                    "type": "address"
                },
                {
                    "internalType": "uint256",
                    "name": "tokenId",
                    "type": "uint256"
                }
            ],
            "name": "transferFrom",
            "outputs": [],
            "stateMutability": "nonpayable",
            "type": "function"
        },
        {
            "inputs": [
                {
                    "internalType": "uint256",
                    "name": "",
                    "type": "uint256"
                }
            ],
            "name": "vmuCount",
            "outputs": [
                {
                    "internalType": "uint256",
                    "name": "",
                    "type": "uint256"
                }
            ],
            "stateMutability": "view",
            "type": "function"
        },
        {
            "inputs": [],
            "name": "xenCrypto",
            "outputs": [
                {
                    "internalType": "contract XENCrypto",
                    "name": "",
                    "type": "address"
                }
            ],
            "stateMutability": "view",
            "type": "function"
        },
        {
            "inputs": [],
            "name": "ownedTokens",
            "outputs": [
                {
                    "internalType": "uint256[]",
                    "name": "",
                    "type": "uint256[]"
                }
            ],
            "stateMutability": "view",
            "type": "function"
        },
        {
            "inputs": [
                {
                    "internalType": "bool",
                    "name": "x",
                    "type": "bool"
                }
            ],
            "name": "toU256",
            "outputs": [
                {
                    "internalType": "uint256",
                    "name": "r",
                    "type": "uint256"
                }
            ],
            "stateMutability": "pure",
            "type": "function"
        },
        {
            "inputs": [
                {
                    "internalType": "uint256",
                    "name": "term",
                    "type": "uint256"
                },
                {
                    "internalType": "uint256",
                    "name": "maturityTs",
                    "type": "uint256"
                },
                {
                    "internalType": "uint256",
                    "name": "rank",
                    "type": "uint256"
                },
                {
                    "internalType": "uint256",
                    "name": "amp",
                    "type": "uint256"
                },
                {
                    "internalType": "uint256",
                    "name": "eaa",
                    "type": "uint256"
                },
                {
                    "internalType": "bool",
                    "name": "redeemed",
                    "type": "bool"
                }
            ],
            "name": "encodeMintInfo",
            "outputs": [
                {
                    "internalType": "uint256",
                    "name": "info",
                    "type": "uint256"
                }
            ],
            "stateMutability": "pure",
            "type": "function"
        },
        {
            "inputs": [
                {
                    "internalType": "uint256",
                    "name": "info",
                    "type": "uint256"
                }
            ],
            "name": "decodeMintInfo",
            "outputs": [
                {
                    "internalType": "uint256",
                    "name": "term",
                    "type": "uint256"
                },
                {
                    "internalType": "uint256",
                    "name": "maturityTs",
                    "type": "uint256"
                },
                {
                    "internalType": "uint256",
                    "name": "rank",
                    "type": "uint256"
                },
                {
                    "internalType": "uint256",
                    "name": "amp",
                    "type": "uint256"
                },
                {
                    "internalType": "uint256",
                    "name": "eaa",
                    "type": "uint256"
                },
                {
                    "internalType": "bool",
                    "name": "redeemed",
                    "type": "bool"
                }
            ],
            "stateMutability": "pure",
            "type": "function"
        },
        {
            "inputs": [
                {
                    "internalType": "uint256",
                    "name": "info",
                    "type": "uint256"
                }
            ],
            "name": "getTerm",
            "outputs": [
                {
                    "internalType": "uint256",
                    "name": "term",
                    "type": "uint256"
                }
            ],
            "stateMutability": "pure",
            "type": "function"
        },
        {
            "inputs": [
                {
                    "internalType": "uint256",
                    "name": "info",
                    "type": "uint256"
                }
            ],
            "name": "getMaturityTs",
            "outputs": [
                {
                    "internalType": "uint256",
                    "name": "maturityTs",
                    "type": "uint256"
                }
            ],
            "stateMutability": "pure",
            "type": "function"
        },
        {
            "inputs": [
                {
                    "internalType": "uint256",
                    "name": "info",
                    "type": "uint256"
                }
            ],
            "name": "getRank",
            "outputs": [
                {
                    "internalType": "uint256",
                    "name": "rank",
                    "type": "uint256"
                }
            ],
            "stateMutability": "pure",
            "type": "function"
        },
        {
            "inputs": [
                {
                    "internalType": "uint256",
                    "name": "info",
                    "type": "uint256"
                }
            ],
            "name": "getAMP",
            "outputs": [
                {
                    "internalType": "uint256",
                    "name": "amp",
                    "type": "uint256"
                }
            ],
            "stateMutability": "pure",
            "type": "function"
        },
        {
            "inputs": [
                {
                    "internalType": "uint256",
                    "name": "info",
                    "type": "uint256"
                }
            ],
            "name": "getEAA",
            "outputs": [
                {
                    "internalType": "uint256",
                    "name": "eaa",
                    "type": "uint256"
                }
            ],
            "stateMutability": "pure",
            "type": "function"
        },
        {
            "inputs": [
                {
                    "internalType": "uint256",
                    "name": "info",
                    "type": "uint256"
                }
            ],
            "name": "getRedeemed",
            "outputs": [
                {
                    "internalType": "bool",
                    "name": "redeemed",
                    "type": "bool"
                }
            ],
            "stateMutability": "pure",
            "type": "function"
        },
        {
            "inputs": [
                {
                    "internalType": "uint256",
                    "name": "tokenId",
                    "type": "uint256"
                }
            ],
            "name": "isLimited",
            "outputs": [
                {
                    "internalType": "bool",
                    "name": "limited",
                    "type": "bool"
                }
            ],
            "stateMutability": "pure",
            "type": "function"
        },
        {
            "inputs": [
                {
                    "internalType": "uint256",
                    "name": "tokenId",
                    "type": "uint256"
                }
            ],
            "name": "tokenURI",
            "outputs": [
                {
                    "internalType": "string",
                    "name": "",
                    "type": "string"
                }
            ],
            "stateMutability": "view",
            "type": "function"
        },
        {
            "inputs": [
                {
                    "internalType": "uint256",
                    "name": "term",
                    "type": "uint256"
                }
            ],
            "name": "callClaimRank",
            "outputs": [],
            "stateMutability": "nonpayable",
            "type": "function"
        },
        {
            "inputs": [
                {
                    "internalType": "address",
                    "name": "to",
                    "type": "address"
                }
            ],
            "name": "callClaimMintReward",
            "outputs": [],
            "stateMutability": "nonpayable",
            "type": "function"
        },
        {
            "inputs": [],
            "name": "powerDown",
            "outputs": [],
            "stateMutability": "nonpayable",
            "type": "function"
        },
        {
            "inputs": [
                {
                    "internalType": "uint256",
                    "name": "count",
                    "type": "uint256"
                },
                {
                    "internalType": "uint256",
                    "name": "term",
                    "type": "uint256"
                }
            ],
            "name": "bulkClaimRank",
            "outputs": [
                {
                    "internalType": "uint256",
                    "name": "",
                    "type": "uint256"
                }
            ],
            "stateMutability": "nonpayable",
            "type": "function"
        },
        {
            "inputs": [
                {
                    "internalType": "uint256",
                    "name": "tokenId",
                    "type": "uint256"
                },
                {
                    "internalType": "address",
                    "name": "to",
                    "type": "address"
                }
            ],
            "name": "bulkClaimMintReward",
            "outputs": [],
            "stateMutability": "nonpayable",
            "type": "function"
        }
    ],
    "bytecode": "0x61012060405260a960c090815260d260e05261013161010052620000289060069060036200013c565b5060408051606081018252610107815260006020820152602a91810191909152620000589060079060036200013c565b5060408051606081018252600a815260326020820152605a918101919091526200008790600890600362000192565b506127116009556001600a55348015620000a057600080fd5b50604051620050aa380380620050aa833981016040819052620000c391620001ec565b604080518082018252600580825264161153919560da1b6020808401829052845180860190955291845290830152906000620001008382620002c3565b5060016200010f8282620002c3565b5050506001600160a01b0381166200012657600080fd5b306080526001600160a01b031660a0526200038f565b82805482825590600052602060002090810192821562000180579160200282015b8281111562000180578251829061ffff169055916020019190600101906200015d565b506200018e929150620001d5565b5090565b82805482825590600052602060002090810192821562000180579160200282015b8281111562000180578251829060ff16905591602001919060010190620001b3565b5b808211156200018e5760008155600101620001d6565b600060208284031215620001ff57600080fd5b81516001600160a01b03811681146200021757600080fd5b9392505050565b634e487b7160e01b600052604160045260246000fd5b600181811c908216806200024957607f821691505b6020821081036200026a57634e487b7160e01b600052602260045260246000fd5b50919050565b601f821115620002be57600081815260208120601f850160051c81016020861015620002995750805b601f850160051c820191505b81811015620002ba57828155600101620002a5565b5050505b505050565b81516001600160401b03811115620002df57620002df6200021e565b620002f781620002f0845462000234565b8462000270565b602080601f8311600181146200032f5760008415620003165750858301515b600019600386901b1c1916600185901b178555620002ba565b600085815260208120601f198616915b8281101562000360578886015182559484019460019091019084016200033f565b50858210156200037f5787850151600019600388901b60f8161c191681555b5050505050600190811b01905550565b60805160a051614cc4620003e66000396000818161040e0152818161062f01528181610d5401528181610fd0015281816119a30152611a3f01526000818161059901528181610b4f0152610cbd0152614cc46000f3fe608060405234801561001057600080fd5b506004361061021f5760003560e01c80634c0282411161012c5780634c028241146103c85780635ce55ab6146103d05780636352211e146103e357806370a08231146103f657806371141a5814610409578063874b0cf51461043057806388f882e814610439578063928dd2a71461047b57806395d89b41146104835780639886bf631461048b57806398bdf6f514610494578063a1a53fa11461049d578063a22cb465146104bd578063a5099bae146104d0578063a50e329d146104e3578063a85581e7146104f6578063b88d4fde14610509578063c87b56dd1461051c578063df0030ef1461052f578063e90cdc8914610542578063e985e9c514610555578063ecef920114610568578063f5878b9b1461057b57600080fd5b806301bb41161461022457806301ffc9a71461023957806306fdde0314610261578063081812fc1461027657806308a90d5a14610296578063095ea7b3146102ab5780630b1603d5146102be57806315370046146102d457806319cba6b4146102e75780631f20f816146102fc57806323b872dd14610304578063243eb2c41461031757806324bf728e1461032a578063262ddfd31461033d5780632a63ab7114610345578063316db55d14610358578063346ba941146103605780633de594f71461037357806342842e0e1461037c578063436287ad1461038f578063443aa53314610397578063471a4944146103b7575b600080fd5b6102376102323660046131cb565b61058e565b005b61024c6102473660046131fa565b6106e1565b60405190151581526020015b60405180910390f35b610269610733565b6040516102589190613267565b6102896102843660046131cb565b6107c5565b604051610258919061327a565b61024c6102a43660046131cb565b6127111190565b6102376102b93660046132a3565b6107ec565b6102c660b481565b604051908152602001610258565b6102c66102e23660046131cb565b6108fc565b6102ef610913565b60405161025891906132cf565b6102c6602381565b610237610312366004613307565b610973565b6102c66103253660046131cb565b6109a4565b6102c66103383660046131cb565b6109ba565b6102c6600181565b6102c66103533660046131cb565b6109d1565b6102c6604b81565b6102c661036e3660046131cb565b6109f2565b6102c661271181565b61023761038a366004613307565b610a09565b6102c6606381565b6102c66103a53660046131cb565b600d6020526000908152604090205481565b6102c66103c536600461335d565b90565b6102c6607781565b6102c66103de366004613378565b610a24565b6102896103f13660046131cb565b610a4a565b6102c66104043660046133c9565b610a7f565b6102897f000000000000000000000000000000000000000000000000000000000000000081565b6102c6600a5481565b61044c6104473660046131cb565b610b05565b6040805196875260208701959095529385019290925260608401526080830152151560a082015260c001610258565b610237610b44565b610269610b90565b6102c66103e881565b6102c660095481565b6102c66104ab3660046131cb565b600c6020526000908152604090205481565b6102376104cb3660046133e6565b610b9f565b6102c66104de3660046131cb565b610bae565b6102c66104f13660046131cb565b610bc5565b6102c66105043660046131cb565b610bd5565b610237610517366004613488565b610be5565b61026961052a3660046131cb565b610c1d565b61023761053d3660046133c9565b610cb2565b61024c6105503660046131cb565b610d80565b61024c610563366004613536565b610d96565b6102c661057636600461356f565b610dc4565b610237610589366004613591565b611160565b336001600160a01b037f000000000000000000000000000000000000000000000000000000000000000016146105df5760405162461bcd60e51b81526004016105d6906135b6565b60405180910390fd5b6000816040516024016105f491815260200190565b60408051601f198184030181529181526020820180516001600160e01b0316639ff054df60e01b179052519091506000906001600160a01b037f0000000000000000000000000000000000000000000000000000000000000000169061065b9084906135f8565b6000604051808303816000865af19150503d8060008114610698576040519150601f19603f3d011682016040523d82523d6000602084013e61069d565b606091505b50509050806106dc5760405162461bcd60e51b815260206004820152600b60248201526a18d85b1b0819985a5b195960aa1b60448201526064016105d6565b505050565b60006001600160e01b031982166380ac58cd60e01b148061071257506001600160e01b03198216635b5e139f60e01b145b8061072d57506301ffc9a760e01b6001600160e01b03198316145b92915050565b60606000805461074290613614565b80601f016020809104026020016040519081016040528092919081815260200182805461076e90613614565b80156107bb5780601f10610790576101008083540402835291602001916107bb565b820191906000526020600020905b81548152906001019060200180831161079e57829003601f168201915b5050505050905090565b60006107d082611509565b506000908152600460205260409020546001600160a01b031690565b60006107f782610a4a565b9050806001600160a01b0316836001600160a01b0316036108645760405162461bcd60e51b815260206004820152602160248201527f4552433732313a20617070726f76616c20746f2063757272656e74206f776e656044820152603960f91b60648201526084016105d6565b336001600160a01b038216148061088057506108808133610d96565b6108f25760405162461bcd60e51b815260206004820152603e60248201527f4552433732313a20617070726f76652063616c6c6572206973206e6f7420746f60448201527f6b656e206f776e6572206e6f7220617070726f76656420666f7220616c6c000060648201526084016105d6565b6106dc8383611531565b600061090782610b05565b50909695505050505050565b336000908152600b60209081526040918290208054835181840281018401909452808452606093928301828280156107bb57602002820191906000526020600020905b815481526020019060010190808311610956575050505050905090565b61097d338261159f565b6109995760405162461bcd60e51b81526004016105d69061364e565b6106dc8383836115fe565b60006109af82610b05565b509695505050505050565b60006109c582610b05565b50929695505050505050565b600781815481106109e157600080fd5b600091825260209091200154905081565b60006109fd82610b05565b50939695505050505050565b6106dc83838360405180602001604052806000815250610be5565b60109190911b1760209190911b1760309190911b1760b09190911b1760f09190911b1790565b6000818152600260205260408120546001600160a01b03168061072d5760405162461bcd60e51b81526004016105d69061369c565b60006001600160a01b038216610ae95760405162461bcd60e51b815260206004820152602960248201527f4552433732313a2061646472657373207a65726f206973206e6f7420612076616044820152683634b21037bbb732b960b91b60648201526084016105d6565b506001600160a01b031660009081526003602052604090205490565b60f081901c9160b082901c6001600160401b031691603081901c6001600160801b03169161ffff602083901c811692601081901c821692911660011490565b336001600160a01b037f00000000000000000000000000000000000000000000000000000000000000001614610b8c5760405162461bcd60e51b81526004016105d6906135b6565b6000ff5b60606001805461074290613614565b610baa3383836117a0565b5050565b6000610bb982610b05565b50919695505050505050565b600681815481106109e157600080fd5b600881815481106109e157600080fd5b610bef338361159f565b610c0b5760405162461bcd60e51b81526004016105d69061364e565b610c178484848461186a565b50505050565b6000818152600c602052604090205460609080610c3957600080fd5b6000610c448461189d565b610c55610c508661199d565b611bc6565b610c5e86611d18565b604051602001610c70939291906136ce565b6040516020818303038152906040529050610c8a81611bc6565b604051602001610c9a91906137e6565b60405160208183030381529060405292505050919050565b336001600160a01b037f00000000000000000000000000000000000000000000000000000000000000001614610cfa5760405162461bcd60e51b81526004016105d6906135b6565b6040516001600160a01b03821660248201526064604482018190526000910160408051601f198184030181529181526020820180516001600160e01b0316631c56030560e01b179052519091506000906001600160a01b037f0000000000000000000000000000000000000000000000000000000000000000169061065b9084906135f8565b6000610d8b82610b05565b979650505050505050565b6001600160a01b03918216600090815260056020908152604080832093909416825291909152205460ff1690565b6040516000908190610e0a90733d602d80600a3d3981f3363d3d373d3d3d363d7360601b903060601b906e5af43d82803e903d91602b57fd5bf360881b9060200161382b565b604051602081830303815290604052905060008411610e625760405162461bcd60e51b815260206004820152601460248201527316115391950e88125b1b1959d85b0818dbdd5b9d60621b60448201526064016105d6565b60008311610ea85760405162461bcd60e51b815260206004820152601360248201527258454e46543a20496c6c6567616c207465726d60681b60448201526064016105d6565b600083604051602401610ebd91815260200190565b60408051601f198184030181529190526020810180516001600160e01b031662dda08b60e11b179052905060008080606388118015610eff5750612711600a54105b610f0b57600954610f0f565b600a545b905060015b610f1f89600161386f565b81101561109d576040805160208101839052908101839052600090606001604051602081830303815290604052805190602001209050808751602089016000f594506000808751602089016000895af1935083610fbe5760405162461bcd60e51b815260206004820181905260248201527f58454e46543a204572726f72207768696c6520636c61696d696e672072616e6b60448201526064016105d6565b8160010361108a5760008060008060007f00000000000000000000000000000000000000000000000000000000000000006001600160a01b031663df2823318b6040518263ffffffff1660e01b815260040161101a919061327a565b60c060405180830381865afa158015611037573d6000803e3d6000fd5b505050506040513d601f19601f8201168201806040525081019061105b9190613882565b955095509550955095505061107585858585856000610a24565b6000898152600d602052604090205550505050505b5080611095816138d5565b915050610f14565b506000818152600c602052604090208890556110b93382611e94565b336000908152600b602052604090206110d29082611eae565b6063881180156110e55750612711600a54105b1561110457600a80549060006110fa836138d5565b919050555061111a565b60098054906000611114836138d5565b91905055505b604080518981526020810189905233917ffbb2077593b3594fd0ac359a2d898268191a74843aaf1ba3f517b5514a1b0711910160405180910390a2979650505050505050565b3361116a83610a4a565b6001600160a01b0316146111b95760405162461bcd60e51b81526020600482015260166024820152752c22a7232a1d1024b731b7b93932b1ba1037bbb732b960511b60448201526064016105d6565b6001600160a01b0381166112085760405162461bcd60e51b815260206004820152601660248201527558454e46543a20496c6c6567616c206164647265737360501b60448201526064016105d6565b6000828152600d602052604090205461122090610d80565b156112675760405162461bcd60e51b815260206004820152601760248201527616115391950e88105b1c9958591e481c995919595b5959604a1b60448201526064016105d6565b6040516000906112ab90733d602d80600a3d3981f3363d3d373d3d3d363d7360601b903060601b906e5af43d82803e903d91602b57fd5bf360881b9060200161382b565b60408051601f198184030181529181526000858152600c60205290812054919250906112d890600161386f565b90506000836040516024016112ed919061327a565b60408051601f19818403018152918152602080830180516001600160e01b0390811663df0030ef60e01b1790915282516004815260248101909352908201805190911663928dd2a760e01b17905290915060015b838110156114a8576040805160208082018490528183018a90528251808303840181526060808401855281519183019190912089518a8401206001600160f81b031960808601523090921b6001600160601b03191660818501526095840181905260b5808501929092528451808503909201825260d5909301909352825192810192909220855191926000928291849182918a0182855af19250826114345760405162461bcd60e51b815260206004820152602360248201527f58454e46543a204572726f72207768696c6520636c61696d696e67207265776160448201526272647360e81b60648201526084016105d6565b6000808751602089016000855af19250826114915760405162461bcd60e51b815260206004820181905260248201527f58454e46543a204572726f72207768696c6520706f776572696e6720646f776e60448201526064016105d6565b5050505080806114a0906138d5565b915050611341565b506000868152600d6020526040902080546001179055604080518781526001600160a01b038716602082015233917f7ae39cb5fb0bebb7775f35a0009e0c94f59c2e40c8967af20842619edac4694d910160405180910390a2505050505050565b61151281611f26565b61152e5760405162461bcd60e51b81526004016105d69061369c565b50565b600081815260046020526040902080546001600160a01b0319166001600160a01b038416908117909155819061156682610a4a565b6001600160a01b03167f8c5be1e5ebec7d5bd14f71427d1e84f3dd0314c0f7b2291e5b200ac8c7c3b92560405160405180910390a45050565b6000806115ab83610a4a565b9050806001600160a01b0316846001600160a01b031614806115d257506115d28185610d96565b806115f65750836001600160a01b03166115eb846107c5565b6001600160a01b0316145b949350505050565b826001600160a01b031661161182610a4a565b6001600160a01b0316146116755760405162461bcd60e51b815260206004820152602560248201527f4552433732313a207472616e736665722066726f6d20696e636f72726563742060448201526437bbb732b960d91b60648201526084016105d6565b6001600160a01b0382166116d75760405162461bcd60e51b8152602060048201526024808201527f4552433732313a207472616e7366657220746f20746865207a65726f206164646044820152637265737360e01b60648201526084016105d6565b6116e2600082611531565b6001600160a01b038316600090815260036020526040812080546001929061170b9084906138ee565b90915550506001600160a01b038216600090815260036020526040812080546001929061173990849061386f565b909155505060008181526002602052604080822080546001600160a01b0319166001600160a01b0386811691821790925591518493918716917fddf252ad1be2c89b69c2b068fc378daa952ba7f163c4a11628f55a4df523b3ef91a46106dc838383611f43565b816001600160a01b0316836001600160a01b0316036117fd5760405162461bcd60e51b815260206004820152601960248201527822a9219b99189d1030b8383937bb32903a379031b0b63632b960391b60448201526064016105d6565b6001600160a01b03838116600081815260056020908152604080832094871680845294825291829020805460ff191686151590811790915591519182527f17307eab39ab6107e8899845ad3d59bd9653f200f220920489ca2b5937696c31910160405180910390a3505050565b6118758484846115fe565b61188184848484611f87565b610c175760405162461bcd60e51b81526004016105d690613901565b6060816000036118c45750506040805180820190915260018152600360fc1b602082015290565b8160005b81156118ee57806118d8816138d5565b91506118e79050600a83613969565b91506118c8565b6000816001600160401b038111156119085761190861341b565b6040519080825280601f01601f191660200182016040528015611932576020820181803683370190505b5090505b84156115f6576119476001836138ee565b9150611954600a8661397d565b61195f90603061386f565b60f81b81838151811061197457611974613991565b60200101906001600160f81b031916908160001a905350611996600a86613969565b9450611936565b606060007f00000000000000000000000000000000000000000000000000000000000000006001600160a01b03166395d89b416040518163ffffffff1660e01b8152600401600060405180830381865afa1580156119ff573d6000803e3d6000fd5b505050506040513d6000823e601f3d908101601f19168201604052611a2791908101906139a7565b905060006040518061014001604052808381526020017f00000000000000000000000000000000000000000000000000000000000000006001600160a01b03168152602001858152602001611a8e600d6000888152602001908152602001600020546109f2565b8152602001611aaf600d600088815260200190815260200160002054610bae565b81526000868152600c602090815260408083205482850152888352600d9091529081902054910190611ae0906109ba565b8152602001611b01600d6000888152602001908152602001600020546108fc565b8152602001611b22600d6000888152602001908152602001600020546109a4565b8152602001611b43600d600088815260200190815260200160002054610d80565b151590526000858152600d60209081526040808320548151928301529293509091600c91016040516020818303038152906040528051906020012060001c611b8b919061397d565b9050611b98856127111190565b15611bb957611bb082611baa87612088565b8361225e565b95945050505050565b611bb082611baa87612386565b60608151600003611be557505060408051602081019091526000815290565b6000604051806060016040528060408152602001614bbb6040913990506000600384516002611c14919061386f565b611c1e9190613969565b611c29906004613a14565b6001600160401b03811115611c4057611c4061341b565b6040519080825280601f01601f191660200182016040528015611c6a576020820181803683370190505b509050600182016020820185865187015b80821015611cd6576003820191508151603f8160121c168501518453600184019350603f81600c1c168501518453600184019350603f8160061c168501518453600184019350603f8116850151845350600183019250611c7b565b5050600386510660018114611cf25760028114611d0557611d0d565b603d6001830353603d6002830353611d0d565b603d60018303535b509195945050505050565b6000818152600c6020908152604080832054600d909252822054606092908190819081908190611d4790610b05565b95509550955095509550506000611d5f896127111190565b611d8357604051806040016040528060028152602001616e6f60f01b815250611da0565b6040518060400160405280600381526020016279657360e81b8152505b611da98861189d565b611db3878a61255c565b604051602001611dc593929190613a2b565b60405160208183030381529060405290506000611de18561189d565b611df4611def600a87613969565b61189d565b611dfd8961189d565b85611e2257604051806040016040528060028152602001616e6f60f01b815250611e3f565b6040518060400160405280600381526020016279657360e81b8152505b604051602001611e529493929190613b1b565b60405160208183030381529060405290508181604051602001611e76929190613c56565b60405160208183030381529060405298505050505050505050919050565b610baa8282604051806020016040528060008152506125df565b611f0782805480602002602001604051908101604052809291908181526020018280548015611efc57602002820191906000526020600020905b815481526020019060010190808311611ee8575b505050505082612612565b600003610baa5781546001810183556000928352602090922090910155565b6000908152600260205260409020546001600160a01b0316151590565b6001600160a01b0383166000908152600b60205260409020611f659082612663565b6001600160a01b0382166000908152600b602052604090206106dc9082611eae565b60006001600160a01b0384163b1561207d57604051630a85bd0160e11b81526001600160a01b0385169063150b7a0290611fcb903390899088908890600401613ca3565b6020604051808303816000875af1925050508015612006575060408051601f3d908101601f1916820190925261200391810190613cd6565b60015b612063573d808015612034576040519150601f19603f3d011682016040523d82523d6000602084013e612039565b606091505b50805160000361205b5760405162461bcd60e51b81526004016105d690613901565b805181602001fd5b6001600160e01b031916630a85bd0160e11b1490506115f6565b506001949350505050565b6000818152600c6020526040812054606091906077116120a95760076120ac565b60065b8054806020026020016040519081016040528092919081815260200182805480156120f657602002820191906000526020600020905b8154815260200190600101908083116120e2575b50505050509050600060036001600160401b038111156121185761211861341b565b60405190808252806020026020018201604052801561215157816020015b61213e613182565b8152602001906001900390816121365790505b50905060005b81518110156121f0576040518060a0016040528084838151811061217d5761217d613991565b60200260200101518152602001604b81526020016023815260200160018152602001600883815481106121b2576121b2613991565b90600052602060002001548152508282815181106121d2576121d2613991565b602002602001018190525080806121e8906138d5565b915050612157565b5060408051600180825281830190925290816020015b61220e6131b1565b815260200190600190039081612206579050509250604051806040016040528082815260200160008152508360008151811061224c5761224c613991565b60200260200101819052505050919050565b606060006122858460008151811061227857612278613991565b6020026020010151612748565b60405180610100016040528060d28152602001614ae960d291396122a9865161277f565b6122b161280d565b6040516020016122c49493929190613cf3565b604051602081830303815290604052905060006122e9866000015187602001516128a2565b6123058760400151886060015189608001518a60a001516128c8565b61231d8860c001518960e001518a610100015161295b565b61232687612a46565b6123348a6101200151612af1565b604051602001612348959493929190613d4a565b6040516020818303038152906040529050818160405160200161236c929190613db5565b604051602081830303815290604052925050509392505050565b6000818152600c6020908152604080832054600d909252822054606092906123ad906109f2565b6040805160028082526060820190925291925060009190816020015b6123d1613182565b8152602001906001900390816123c95790505090506040518060a00160405280606360b4866124009190613a14565b61240a9190613969565b8152602001604b81526020016023815260200160018152602001600860008154811061243857612438613991565b90600052602060002001548152508160008151811061245957612459613991565b60200260200101819052506040518060a001604052806103e860b48561247f9190613a14565b6124899190613969565b6124949060b461386f565b8152602001604b8152602001602381526020016001815260200160086002815481106124c2576124c2613991565b9060005260206000200154815250816001815181106124e3576124e3613991565b602090810291909101015260408051600180825281830190925290816020015b61250b6131b1565b815260200190600190039081612503579050509350604051806040016040528082815260200160008152508460008151811061254957612549613991565b6020026020010181905250505050919050565b6060816001036125955761256f8361189d565b60405160200161257f91906135f8565b604051602081830303815290604052905061072d565b61259e8361189d565b6125b760016125ad858761386f565b611def91906138ee565b6040516020016125c8929190613e7a565b604051602081830303815290604052905092915050565b6125e98383612cb4565b6125f66000848484611f87565b6106dc5760405162461bcd60e51b81526004016105d690613901565b60015b8251811161265a57818361262a6001846138ee565b8151811061263a5761263a613991565b6020026020010151031561072d5780612652816138d5565b915050612615565b50600092915050565b60006126be838054806020026020016040519081016040528092919081815260200182805480156126b357602002820191906000526020600020905b81548152602001906001019080831161269f575b505050505083612612565b905080156106dc57825483906126d6906001906138ee565b815481106126e6576126e6613991565b9060005260206000200154836001836126ff91906138ee565b8154811061270f5761270f613991565b90600052602060002001819055508280548061272d5761272d613eb7565b60019003818190600052602060002001600090559055505050565b606061275982600001516000612dee565b6040516020016127699190613ecd565b6040516020818303038152906040529050919050565b60408051602081019091526000808252606091905b838110156127db57816127a682612ebd565b6040516020016127b7929190613f0c565b604051602081830303815290604052915080806127d3906138d5565b915050612794565b50806127e5612ed8565b6040516020016127f6929190613f3b565b604051602081830303815290604052915050919050565b606060405160200161288e907f3c7465787420783d223530252220793d223331252220636c6173733d2262617381527f65206c6f676f2220646f6d696e616e742d626173656c696e653d226d6964646c60208201527f652220746578742d616e63686f723d226d6964646c65223e583c2f746578743e604082015260600190565b604051602081830303815290604052905090565b6060826128b7836001600160a01b0316612ef8565b6040516020016125c8929190613f8d565b606060006128d58661189d565b6128de8661189d565b6040516020016128ef92919061404f565b6040516020818303038152906040529050600061290c8585612f0e565b60405160200161291c91906141c4565b60405160208183030381529060405290508181604051602001612940929190613f0c565b60405160208183030381529060405292505050949350505050565b606060006129688461189d565b612976611def600a86613969565b604051602001612987929190614268565b60408051808303601f190181529082905263b5d987e360e01b825260048201879052915060009073__DateTime______________________________9063b5d987e390602401600060405180830381865af41580156129ea573d6000803e3d6000fd5b505050506040513d6000823e601f3d908101601f19168201604052612a1291908101906139a7565b604051602001612a229190614360565b6040516020818303038152906040529050818160405160200161236c929190613f0c565b606073__Quotes________________________________63831b46a160405180610340016040528061031881526020016147d16103189139846040518363ffffffff1660e01b8152600401612a9c9291906143fb565b600060405180830381865af4158015612ab9573d6000803e3d6000fd5b505050506040513d6000823e601f3d908101601f19168201604052612ae191908101906139a7565b604051602001612769919061441d565b606081612b0c57505060408051602081019091526000815290565b604051602001612769907f3c7265637420783d223530252220793d2237372e3525222077696474683d223181527f303022206865696768743d22343022207374726f6b653d22626c61636b22207360208201527f74726f6b652d77696474683d2231222066696c6c3d226e6f6e65222072783d2260408201527f357078222072793d2235707822207472616e73666f726d3d227472616e736c6160608201527f7465282d35302c2d32302920726f74617465282d32302c302c3430302922202f6080820152601f60f91b60a08201527f3c7465787420783d223530252220793d2237372e352522207374726f6b653d2260a18201527f626c61636b2220636c6173733d2262617365206d6574612220646f6d696e616e60c18201527f742d626173656c696e653d226d6964646c652220746578742d616e63686f723d60e18201527f226d6964646c6522207472616e73666f726d3d227472616e736c61746528302c6101018201527f302920726f74617465282d32302c2d34352c3338302922203e52656465656d6561012182015267321e17ba32bc3a1f60c11b6101418201526101490190565b6001600160a01b038216612d0a5760405162461bcd60e51b815260206004820181905260248201527f4552433732313a206d696e7420746f20746865207a65726f206164647265737360448201526064016105d6565b612d1381611f26565b15612d5f5760405162461bcd60e51b815260206004820152601c60248201527b115490cdcc8c4e881d1bdad95b88185b1c9958591e481b5a5b9d195960221b60448201526064016105d6565b6001600160a01b0382166000908152600360205260408120805460019290612d8890849061386f565b909155505060008181526002602052604080822080546001600160a01b0319166001600160a01b03861690811790915590518392907fddf252ad1be2c89b69c2b068fc378daa952ba7f163c4a11628f55a4df523b3ef908290a4610baa60008383611f43565b60408051602081019091526000808252606091905b8451811015612e8957848181518110612e1e57612e1e613991565b602002602001015160000151600014612e775781612e54868381518110612e4757612e47613991565b6020026020010151612f6e565b604051602001612e65929190613f0c565b60405160208183030381529060405291505b80612e81816138d5565b915050612e03565b50612e938361189d565b81604051602001612ea59291906144bc565b60405160208183030381529060405291505092915050565b6060612ec88261189d565b6040516020016127699190614563565b60606040518060c0016040528060948152602001614bfb60949139905090565b606061072d6001600160a01b0383166014612fa5565b606081600103612f3b57612f218361189d565b612f2a8361189d565b60405160200161257f9291906145ff565b612f448361189d565b612f5360016125ad858761386f565b612f5c8461189d565b6040516020016125c893929190614630565b6060612f7982613147565b612f86836060015161189d565b612f93846080015161189d565b60405160200161276993929190614691565b60606000612fb4836002613a14565b612fbf90600261386f565b6001600160401b03811115612fd657612fd661341b565b6040519080825280601f01601f191660200182016040528015613000576020820181803683370190505b509050600360fc1b8160008151811061301b5761301b613991565b60200101906001600160f81b031916908160001a905350600f60fb1b8160018151811061304a5761304a613991565b60200101906001600160f81b031916908160001a905350600061306e846002613a14565b61307990600161386f565b90505b60018111156130f1576f181899199a1a9b1b9c1cb0b131b232b360811b85600f16601081106130ad576130ad613991565b1a60f81b8282815181106130c3576130c3613991565b60200101906001600160f81b031916908160001a90535060049490941c936130ea81614738565b905061307c565b5083156131405760405162461bcd60e51b815260206004820181905260248201527f537472696e67733a20686578206c656e67746820696e73756666696369656e7460448201526064016105d6565b9392505050565b6060613156826000015161189d565b613163836020015161189d565b613170846040015161189d565b6040516020016127699392919061474f565b6040518060a0016040528060008152602001600081526020016000815260200160008152602001600081525090565b604051806040016040528060608152602001600081525090565b6000602082840312156131dd57600080fd5b5035919050565b6001600160e01b03198116811461152e57600080fd5b60006020828403121561320c57600080fd5b8135613140816131e4565b60005b8381101561323257818101518382015260200161321a565b50506000910152565b60008151808452613253816020860160208601613217565b601f01601f19169290920160200192915050565b602081526000613140602083018461323b565b6001600160a01b0391909116815260200190565b6001600160a01b038116811461152e57600080fd5b600080604083850312156132b657600080fd5b82356132c18161328e565b946020939093013593505050565b6020808252825182820181905260009190848201906040850190845b81811015610907578351835292840192918401916001016132eb565b60008060006060848603121561331c57600080fd5b83356133278161328e565b925060208401356133378161328e565b929592945050506040919091013590565b8035801515811461335857600080fd5b919050565b60006020828403121561336f57600080fd5b61314082613348565b60008060008060008060c0878903121561339157600080fd5b86359550602087013594506040870135935060608701359250608087013591506133bd60a08801613348565b90509295509295509295565b6000602082840312156133db57600080fd5b81356131408161328e565b600080604083850312156133f957600080fd5b82356134048161328e565b915061341260208401613348565b90509250929050565b634e487b7160e01b600052604160045260246000fd5b604051601f8201601f191681016001600160401b03811182821017156134595761345961341b565b604052919050565b60006001600160401b0382111561347a5761347a61341b565b50601f01601f191660200190565b6000806000806080858703121561349e57600080fd5b84356134a98161328e565b935060208501356134b98161328e565b92506040850135915060608501356001600160401b038111156134db57600080fd5b8501601f810187136134ec57600080fd5b80356134ff6134fa82613461565b613431565b81815288602083850101111561351457600080fd5b8160208401602083013760006020838301015280935050505092959194509250565b6000806040838503121561354957600080fd5b82356135548161328e565b915060208301356135648161328e565b809150509250929050565b6000806040838503121561358257600080fd5b50508035926020909101359150565b600080604083850312156135a457600080fd5b8235915060208301356135648161328e565b6020808252600c908201526b1d5b985d5d1a1bdc9a5e995960a21b604082015260600190565b600081516135ee818560208601613217565b9290920192915050565b6000825161360a818460208701613217565b9190910192915050565b600181811c9082168061362857607f821691505b60208210810361364857634e487b7160e01b600052602260045260246000fd5b50919050565b6020808252602e908201527f4552433732313a2063616c6c6572206973206e6f7420746f6b656e206f776e6560408201526d1c881b9bdc88185c1c1c9bdd995960921b606082015260800190565b602080825260189082015277115490cdcc8c4e881a5b9d985b1a59081d1bdad95b88125160421b604082015260600190565b607b60f81b81526f226e616d65223a202258454e4654202360801b60018201528351600090613704816011850160208901613217565b61088b60f21b60119184019182018190527f226465736372697074696f6e223a202258454e46543a2058454e2043727970746013830152721bc8135a5b9d1a5b99c8151bdc9c995b9d088b606a1b6033830152691134b6b0b3b2911d101160b11b60468301527919185d184e9a5b5859d94bdcdd99cade1b5b0ed8985cd94d8d0b60321b605083015285516137a081606a850160208a01613217565b606a9201918201526d01130ba3a3934b13aba32b9911d160951b606c8201526137dc6137cf607a8301866135dc565b607d60f81b815260010190565b9695505050505050565b7f646174613a6170706c69636174696f6e2f6a736f6e3b6261736536342c00000081526000825161381e81601d850160208701613217565b91909101601d0192915050565b6001600160601b031993841681529190921660148201526001600160881b0319909116602882015260370190565b634e487b7160e01b600052601160045260246000fd5b8082018082111561072d5761072d613859565b60008060008060008060c0878903121561389b57600080fd5b86516138a68161328e565b6020880151604089015160608a015160808b015160a0909b0151939c929b509099909850965090945092505050565b6000600182016138e7576138e7613859565b5060010190565b8181038181111561072d5761072d613859565b60208082526032908201527f4552433732313a207472616e7366657220746f206e6f6e20455243373231526560408201527131b2b4bb32b91034b6b83632b6b2b73a32b960711b606082015260800190565b634e487b7160e01b600052601260045260246000fd5b60008261397857613978613953565b500490565b60008261398c5761398c613953565b500690565b634e487b7160e01b600052603260045260246000fd5b6000602082840312156139b957600080fd5b81516001600160401b038111156139cf57600080fd5b8201601f810184136139e057600080fd5b80516139ee6134fa82613461565b818152856020838501011115613a0357600080fd5b611bb0826020830160208601613217565b808202811582820484141761072d5761072d613859565b7f7b2274726169745f74797065223a224c696d69746564222c2276616c7565223a81526000601160f91b8060208401528551613a6e816021860160208a01613217565b80840190507f227d2c7b2274726169745f74797065223a22564d5573222c2276616c7565223a602182015281604182015285519150613ab4826042830160208901613217565b8181019150507f227d2c7b2274726169745f74797065223a226352616e6b222c2276616c7565226042820152611d1160f11b60628201528351613afe816064840160208801613217565b62089f4b60ea1b6064929091019182015260670195945050505050565b7f7b2274726169745f74797065223a22414d50222c2276616c7565223a22000000815260008551613b5381601d850160208a01613217565b7f227d2c7b2274726169745f74797065223a2245414120282529222c2276616c75601d918401918201526332911d1160e11b603d8201528551613b9d816041840160208a01613217565b7f227d2c7b2274726169745f74797065223a224d61747572697479222c22646973604192909101918201527a383630bcafba3cb832911d113230ba329116113b30b63ab2911d1160291b60618201528451613bff81607c840160208901613217565b7f227d2c7b2274726169745f74797065223a2252656465656d6564222c2276616c607c9290910191820152643ab2911d1160d91b609c820152610d8b613c4860a18301866135dc565b61227d60f01b815260020190565b605b60f81b815260008351613c72816001850160208801613217565b835190830190613c89816001840160208801613217565b605d60f81b60019290910191820152600201949350505050565b6001600160a01b03858116825284166020820152604081018390526080606082018190526000906137dc9083018461323b565b600060208284031215613ce857600080fd5b8151613140816131e4565b60008551613d05818460208a01613217565b855190830190613d19818360208a01613217565b8551910190613d2c818360208901613217565b8451910190613d3f818360208801613217565b019695505050505050565b60008651613d5c818460208b01613217565b865190830190613d70818360208b01613217565b8651910190613d83818360208a01613217565b8551910190613d96818360208901613217565b8451910190613da9818360208801613217565b01979650505050505050565b7f3c73766720786d6c6e733d22687474703a2f2f7777772e77332e6f72672f323081527f30302f73766722207072657365727665417370656374526174696f3d22784d6960208201527f6e594d696e206d656574222076696577426f783d223020302033353020353636604082015261111f60f11b606082015260008351613e44816062850160208801613217565b835190830190613e5b816062840160208801613217565b651e17b9bb339f60d11b60629290910191820152606801949350505050565b60008351613e8c818460208801613217565b61171760f11b9083019081528351613eab816002840160208801613217565b01600201949350505050565b634e487b7160e01b600052603160045260246000fd5b651e3232b3399f60d11b815260008251613eee816006850160208701613217565b661e17b232b3399f60c91b6006939091019283015250600d01919050565b60008351613f1e818460208801613217565b835190830190613f32818360208801613217565b01949350505050565b621e339f60e91b815260008351613f59816003850160208801613217565b835190830190613f70816003840160208801613217565b631e17b39f60e11b60039290910191820152600701949350505050565b7f3c7465787420783d223530252220793d2235252220636c6173733d226261736581527f20736d616c6c2220646f6d696e616e742d626173656c696e653d226d6964646c6020820152773291103a32bc3a16b0b731b437b91e9136b4b2323632911f60411b60408201526000835161400c816058850160208801613217565b62e383bb60e81b605891840191820152835161402f81605b840160208801613217565b661e17ba32bc3a1f60c91b605b9290910191820152606201949350505050565b7f3c7465787420783d223530252220793d223530252220636c6173733d2262617381527f65207469746c652220646f6d696e616e742d626173656c696e653d226d69646460208201527f6c652220746578742d616e63686f723d226d6964646c65223e58454e2043525960408201527f50544f3c2f746578743e3c7465787420783d223138252220793d22363325222060608201527f636c6173733d2262617365206d6574612220646f6d696e616e742d626173656c60808201526e696e653d226d6964646c65223e202360881b60a0820152600083516141378160af850160208801613217565b7f3c2f746578743e3c7465787420783d223138252220793d223638252220636c6160af918401918201527f73733d2262617365206d6574612220646f6d696e616e742d626173656c696e6560cf8201527001e9136b4b232363291101f2a32b9369d1607d1b60ef8201528351610100906141b78183850160208901613217565b9190910101949350505050565b7f206461792873293c2f746578743e3c7465787420783d223138252220793d223781527f33252220636c6173733d2262617365206d6574612220646f6d696e616e742d62602082015278030b9b2b634b7329e9136b4b232363291101f31a930b7359d1603d1b604082015260008251614244816059850160208701613217565b6c102b26aab9949e17ba32bc3a1f60991b6059939091019283015250606601919050565b7f3c7465787420783d223138252220793d223738252220636c6173733d2262617381527f65206d6574612220646f6d696e616e742d626173656c696e653d226d6964646c60208201526803291101f20a6a81d160bd1b6040820152600083516142d8816049850160208801613217565b7f3c2f746578743e3c7465787420783d223138252220793d223833252220636c616049918401918201527f73733d2262617365206d6574612220646f6d696e616e742d626173656c696e6560698201526f01e9136b4b232363291101f22a0a09d160851b60898201528351614354816099840160208801613217565b01609901949350505050565b7f253c2f746578743e3c7465787420783d223138252220793d223838252220636c81527f6173733d2262617365206d6574612220646f6d696e616e742d626173656c696e6020820152750329e9136b4b232363291101f26b0ba3ab934ba3c9d160551b6040820152600082516143dd816056850160208701613217565b661e17ba32bc3a1f60c91b6056939091019283015250605d01919050565b60408152600061440e604083018561323b565b90508260208301529392505050565b7f3c7465787420783d223530252220793d223935252220636c6173733d2262617381527f6520736d616c6c2220646f6d696e616e742d626173656c696e653d226d696464602082015279363291103a32bc3a16b0b731b437b91e9136b4b232363291101f60311b60408201526000825161449e81605a850160208701613217565b661e17ba32bc3a1f60c91b605a939091019283015250606101919050565b7f3c6c696e6561724772616469656e74202078313d2231303025222079313d2231815279303025222078323d223025222079323d223025222069643d226760301b60208201526000835161451781603a850160208801613217565b61111f60f11b603a91840191820152835161453981603c840160208801613217565b701e17b634b732b0b923b930b234b2b73a1f60791b603c9290910191820152604d01949350505050565b7f3c726563742077696474683d223130302522206865696768743d22313030252281526c2066696c6c3d2275726c28236760981b6020820152600082516145b181602d850160208701613217565b7f29222072783d2231307078222072793d223130707822207374726f6b652d6c69602d939091019283015250703732b537b4b71e913937bab7321110179f60791b604d820152605e01919050565b60008351614611818460208801613217565b61040560f31b9083019081528351613eab816002840160208801613217565b60008451614642818460208901613217565b61171760f11b9083019081528451614661816002840160208901613217565b61040560f31b600292909101918201528351614684816004840160208801613217565b0160040195945050505050565b711e39ba37b81039ba37b816b1b7b637b91e9160711b815283516000906146bf816012850160208901613217565b6f111039ba37b816b7b830b1b4ba3c9e9160811b60129184019182015284516146ef816022840160208901613217565b69111037b33339b2ba1e9160b11b60229290910191820152835161471a81602c840160208801613217565b631291179f60e11b602c929091019182015260300195945050505050565b60008161474757614747613859565b506000190190565b630d0e6d8560e31b81526000845161476e816004850160208901613217565b61016160f51b6004918401918201528451614790816006840160208901613217565b6201296160ed1b6006929091019182015283516147b4816009840160208801613217565b61252960f01b60099290910191820152600b019594505050505056fe22496620796f75207265616c697a6520796f75206861766520656e6f7567682c20796f7520617265207472756c7920726963682e22202d204c616f20547a7520202022546865207265616c206d656469746174696f6e20697320686f7720796f75206c69766520796f7572206c6966652e22202d204a6f6e204b616261742d5a696e6e2022546f206b6e6f77207468617420796f7520646f206e6f74206b6e6f772069732074686520626573742e22202d204c616f20547a752020202020202020202020202022416e206f7665722d7368617270656e65642073776f72642063616e6e6f74206c617374206c6f6e672e22202d204c616f20547a7520202020202020202020202020225768656e20796f752061636365707420796f757273656c662c207468652077686f6c6520776f726c64206163636570747320796f752e22202d204c616f20547a75224d7573696320696e2074686520736f756c2063616e2062652068656172642062792074686520756e6976657273652e22202d204c616f20547a752020202020202022417320736f6f6e20617320796f752068617665206d61646520612074686f756768742c206c617567682061742069742e22202d204c616f20547a75202020202020225468652066757274686572206f6e6520676f65732c20746865206c657373206f6e65206b6e6f77732e22202d204c616f20547a75202020202020202020202020202253746f70207468696e6b696e672c20616e6420656e6420796f75722070726f626c656d732e22202d204c616f20547a7520202020202020202020202020202020202252656c696162696c6974792069732074686520666f756e646174696f6e206f6620636f6d6d69746d656e742e22202d20556e6b6e6f776e2020202020202020202022596f7572207061737420646f6573206e6f7420657175616c20796f7572206675747572652e22202d20546f6e7920526f6262696e732020202020202020202020202242652074686520706174682e20446f206e6f74207365656b2069742e22202d20596172612054736368616c6c656e657220202020202020202020202020202020203c7374796c653e202e62617365207b66696c6c3a20236564656465643b666f6e742d66616d696c793a4d6f6e747365727261742c617269616c2c73616e732d73657269663b666f6e742d73697a653a333070783b666f6e742d7765696768743a3430303b7d202e7469746c65207b7d202e6c6f676f207b666f6e742d73697a653a32303070783b666f6e742d7765696768743a3130303b7d202e6d657461207b666f6e742d73697a653a313270783b7d202e736d616c6c207b666f6e742d73697a653a3870783b7d207d3c2f7374796c653e4142434445464748494a4b4c4d4e4f505152535455565758595a6162636465666768696a6b6c6d6e6f707172737475767778797a303132333435363738392b2f3c726563742077696474683d2239342522206865696768743d22393625222066696c6c3d227472616e73706172656e74222072783d2231307078222072793d223130707822207374726f6b652d6c696e656a6f696e3d22726f756e642220783d2233252220793d22322522207374726f6b652d6461736861727261793d22312c3622207374726f6b653d22776869746522202f3ea2646970667358221220ddf757af055ccb40c88b5ae828ef1628a757b32fdf0240050f7fb30e74751b3764736f6c63430008110033",
    "immutableReferences": {
        "6578": [
            {
                "length": 32,
                "start": 1433
            },
            {
                "length": 32,
                "start": 2895
            },
            {
                "length": 32,
                "start": 3261
            }
        ],
        "6587": [
            {
                "length": 32,
                "start": 1038
            },
            {
                "length": 32,
                "start": 1583
            },
            {
                "length": 32,
                "start": 3412
            },
            {
                "length": 32,
                "start": 4048
            },
            {
                "length": 32,
                "start": 6563
            },
            {
                "length": 32,
                "start": 6719
            }
        ]
    },
    "source": "// SPDX-License-Identifier: MIT\npragma solidity ^0.8.10;\n\nimport \"@openzeppelin/contracts/token/ERC721/ERC721.sol\";\nimport \"@openzeppelin/contracts/utils/Base64.sol\";\nimport \"@openzeppelin/contracts/utils/Strings.sol\";\nimport \"@faircrypto/xen-crypto/contracts/XENCrypto.sol\";\nimport \"./interfaces/IXENTorrent.sol\";\nimport \"./interfaces/IXENProxying.sol\";\nimport \"./libs/SVG.sol\";\nimport \"./libs/DateTime.sol\";\nimport \"./libs/SVG.sol\";\nimport \"./libs/Array.sol\";\n\n/*\n    XENFT props:\n    - count: number of VMUs\n    - term, maturityTs, cRank start / end, AMP and EAA\n    - redeemed: is the XENFT redeemed (used)\n */\ncontract XENFT is IXENTorrent, IXENProxying, ERC721(\"XENFT\", \"XENFT\") {\n    using DateTime for uint256;\n    using Strings for uint256;\n    using Array for uint256[];\n\n    // XENFT limited series params\n    uint256 public constant LIMITED_SERIES_COUNT = 10_001;\n    uint256 public constant LIMITED_SERIES_VMU_THRESHOLD = 99;\n    uint256 public constant LIMITED_SERIES_VMU_THRESHOLD1 = 119;\n\n    // Metadata image params\n    uint256 public constant MAX_TERM = 1_000;\n    uint256 public constant COLORS_HALF_SCALE = 180;\n    uint256 public constant DEFAULT_SATURATION = 75;\n    uint256 public constant DEFAULT_LUMINOSITY = 35;\n    uint256 public constant DEFAULT_OPACITY = 1;\n    uint256[] public HUES_LIMITED1 = [169, 210, 305];\n    uint256[] public HUES_LIMITED2 = [263, 0, 42];\n    uint256[] public STOP_OFFSETS = [10, 50, 90];\n\n    // original contract marking to distinguish from proxy copies\n    address private immutable _original;\n    // ever increasing counter for NFT tokenIds, also used as salt for proxies' spinning\n\n    uint256 public tokenIdCounter = LIMITED_SERIES_COUNT;\n    uint256 public limitedSeriesCounter = 1;\n\n    // pointer to XEN Crypto contract\n    XENCrypto public immutable xenCrypto;\n\n    // mapping Address => tokenId[]\n    mapping(address => uint256[]) private _ownedTokens;\n    // mapping: NFT tokenId => count of Virtual Mining Units\n    mapping(uint256 => uint256) public vmuCount;\n    // mapping: NFT tokenId => MintInfo (used in tokenURI generation)\n    // MintInfo encoded as:\n    // term (uint16) | maturityTs (uint64) | rank (uint128) | amp (uint16) | eaa (uint16) | redeemed (uint8)\n    mapping(uint256 => uint256) public mintInfo;\n\n    /**\n        @dev    Creates XENFT contract, writing down immutable address for XEN Crypto main contract\n                and original(self) address to distinguish between proxy clones\n     */\n    constructor(address xenCrypto_) {\n        require(xenCrypto_ != address(0));\n        _original = address(this);\n        xenCrypto = XENCrypto(xenCrypto_);\n    }\n\n    /**\n        @dev public getter for tokens owned by address\n     */\n    function ownedTokens() external view returns (uint256[] memory) {\n        return _ownedTokens[msg.sender];\n    }\n\n    /**\n        @dev helper to convert Bool to U256 type and make compiler happy\n     */\n    function toU256(bool x) public pure returns (uint256 r) {\n        assembly {\n            r := x\n        }\n    }\n\n    /**\n        @dev encodes MintInfo record from its props\n     */\n    function encodeMintInfo(\n        uint256 term,\n        uint256 maturityTs,\n        uint256 rank,\n        uint256 amp,\n        uint256 eaa,\n        bool redeemed\n    ) public pure returns (uint256 info) {\n        info = info | toU256(redeemed);\n        info = info | (eaa << 16);\n        info = info | (amp << 32);\n        info = info | (rank << 48);\n        info = info | (maturityTs << 176);\n        info = info | (term << 240);\n    }\n\n    /**\n        @dev decodes MintInfo record and extracts all of its props\n     */\n    function decodeMintInfo(uint256 info)\n        public\n        pure\n        returns (\n            uint256 term,\n            uint256 maturityTs,\n            uint256 rank,\n            uint256 amp,\n            uint256 eaa,\n            bool redeemed\n        )\n    {\n        term = uint16(info >> 240);\n        maturityTs = uint64(info >> 176);\n        rank = uint128(info >> 48);\n        amp = uint16(info >> 32);\n        eaa = uint16(info >> 16);\n        redeemed = uint16(info) == 1;\n    }\n\n    /**\n        @dev extracts `term` prop from encoded MintInfo\n     */\n    function getTerm(uint256 info) public pure returns (uint256 term) {\n        (term, , , , , ) = decodeMintInfo(info);\n    }\n\n    /**\n        @dev extracts `maturityTs` prop from encoded MintInfo\n     */\n    function getMaturityTs(uint256 info) public pure returns (uint256 maturityTs) {\n        (, maturityTs, , , , ) = decodeMintInfo(info);\n    }\n\n    /**\n        @dev extracts `rank` prop from encoded MintInfo\n     */\n    function getRank(uint256 info) public pure returns (uint256 rank) {\n        (, , rank, , , ) = decodeMintInfo(info);\n    }\n\n    /**\n        @dev extracts `AMP` prop from encoded MintInfo\n     */\n    function getAMP(uint256 info) public pure returns (uint256 amp) {\n        (, , , amp, , ) = decodeMintInfo(info);\n    }\n\n    /**\n        @dev extracts `EAA` prop from encoded MintInfo\n     */\n    function getEAA(uint256 info) public pure returns (uint256 eaa) {\n        (, , , , eaa, ) = decodeMintInfo(info);\n    }\n\n    /**\n        @dev extracts `redeemed` prop from encoded MintInfo\n     */\n    function getRedeemed(uint256 info) public pure returns (bool redeemed) {\n        (, , , , , redeemed) = decodeMintInfo(info);\n    }\n\n    /**\n        @dev sets specified XENFT as redeemed\n     */\n    function _setRedeemed(uint256 tokenId) private {\n        mintInfo[tokenId] = mintInfo[tokenId] | uint256(1);\n    }\n\n    /**\n        @dev determines if tokenId corresponds to limited series\n     */\n    function isLimited(uint256 tokenId) public pure returns (bool limited) {\n        limited = tokenId < LIMITED_SERIES_COUNT;\n    }\n\n    /**\n        @dev private helper to generate SVG gradients for limited XENFT series\n     */\n    function _limitedSeriesGradients(uint256 tokenId) private view returns (SVG.Gradient[] memory gradients) {\n        uint256[] memory specialColors = vmuCount[tokenId] < LIMITED_SERIES_VMU_THRESHOLD1\n            ? HUES_LIMITED1\n            : HUES_LIMITED2;\n        SVG.Color[] memory colors = new SVG.Color[](3);\n        for (uint256 i = 0; i < colors.length; i++) {\n            colors[i] = SVG.Color({\n                h: specialColors[i],\n                s: DEFAULT_SATURATION,\n                l: DEFAULT_LUMINOSITY,\n                a: DEFAULT_OPACITY,\n                off: STOP_OFFSETS[i]\n            });\n        }\n        gradients = new SVG.Gradient[](1);\n        gradients[0] = SVG.Gradient({colors: colors, id: 0});\n    }\n\n    /**\n        @dev private helper to generate SVG gradients for regular XENFT series\n     */\n    function _regularSeriesGradients(uint256 tokenId) private view returns (SVG.Gradient[] memory gradients) {\n        uint256 vmus = vmuCount[tokenId];\n        uint256 term = getTerm(mintInfo[tokenId]);\n        SVG.Color[] memory colors = new SVG.Color[](2);\n        colors[0] = SVG.Color({\n            h: (vmus * COLORS_HALF_SCALE) / LIMITED_SERIES_VMU_THRESHOLD,\n            s: DEFAULT_SATURATION,\n            l: DEFAULT_LUMINOSITY,\n            a: DEFAULT_OPACITY,\n            off: STOP_OFFSETS[0]\n        });\n        colors[1] = SVG.Color({\n            h: COLORS_HALF_SCALE + (term * COLORS_HALF_SCALE) / MAX_TERM,\n            s: DEFAULT_SATURATION,\n            l: DEFAULT_LUMINOSITY,\n            a: DEFAULT_OPACITY,\n            off: STOP_OFFSETS[2]\n        });\n        gradients = new SVG.Gradient[](1);\n        gradients[0] = SVG.Gradient({colors: colors, id: 0});\n    }\n\n    /**\n        @dev private helper to generate SVG image based on XENFT params\n     */\n    function _svgData(uint256 tokenId) private view returns (bytes memory) {\n        string memory symbol = IERC20Metadata(address(xenCrypto)).symbol();\n        SVG.SvgParams memory params = SVG.SvgParams({\n            symbol: symbol,\n            xenAddress: address(xenCrypto),\n            tokenId: tokenId,\n            term: getTerm(mintInfo[tokenId]),\n            rank: getRank(mintInfo[tokenId]),\n            count: vmuCount[tokenId],\n            maturityTs: getMaturityTs(mintInfo[tokenId]),\n            amp: getAMP(mintInfo[tokenId]),\n            eaa: getEAA(mintInfo[tokenId]),\n            redeemed: getRedeemed(mintInfo[tokenId])\n        });\n        uint256 idx = uint256(keccak256(abi.encode(mintInfo[tokenId]))) % Quotes.QUOTES_COUNT;\n        if (isLimited(tokenId)) {\n            // Limited series\n            return SVG.image(params, _limitedSeriesGradients(tokenId), idx);\n        } else {\n            // Ordinary series\n            return SVG.image(params, _regularSeriesGradients(tokenId), idx);\n        }\n    }\n\n    /**\n        @dev private helper to construct cRank prop of NFT metadata\n     */\n    function _cRankProp(uint256 rank, uint256 count) private pure returns (bytes memory) {\n        if (count == 1) return abi.encodePacked(rank.toString());\n        return abi.encodePacked(\n            rank.toString(),\n            '..',\n            (rank + count - 1).toString()\n        );\n    }\n\n    /**\n        @dev private helper to construct attributes portion of NFT metadata\n     */\n    function _attributes(uint256 tokenId) private view returns (bytes memory) {\n        uint256 count = vmuCount[tokenId];\n        (, uint256 maturityTs, uint256 rank, uint256 amp, uint256 eaa, bool redeemed) = decodeMintInfo(\n            mintInfo[tokenId]\n        );\n        bytes memory attr1 = abi.encodePacked(\n            '{\"trait_type\":\"Limited\",\"value\":\"',\n            isLimited(tokenId) ? \"yes\" : \"no\",\n            '\"},'\n            '{\"trait_type\":\"VMUs\",\"value\":\"',\n            count.toString(),\n            '\"},'\n            '{\"trait_type\":\"cRank\",\"value\":\"',\n            _cRankProp(rank, count),\n            '\"},'\n        );\n        bytes memory attr2 = abi.encodePacked(\n            '{\"trait_type\":\"AMP\",\"value\":\"',\n            amp.toString(),\n            '\"},'\n            '{\"trait_type\":\"EAA (%)\",\"value\":\"',\n            (eaa / 10).toString(),\n            '\"},'\n            '{\"trait_type\":\"Maturity\",\"display_type\":\"date\",\"value\":\"',\n            maturityTs.toString(),\n            '\"},'\n            '{\"trait_type\":\"Redeemed\",\"value\":\"',\n            redeemed ? \"yes\" : \"no\",\n            '\"}'\n        );\n        return abi.encodePacked(\"[\", attr1, attr2, \"]\");\n    }\n\n    /**\n        @dev compliance with ERC-721 standard (NFT); returns NFT metadata, including SVG-encoded image\n     */\n    function tokenURI(uint256 tokenId) public view override returns (string memory) {\n        uint256 count = vmuCount[tokenId];\n        require(count > 0);\n        bytes memory dataURI = abi.encodePacked(\n            \"{\",\n            '\"name\": \"XENFT #',\n            tokenId.toString(),\n            '\",',\n            '\"description\": \"XENFT: XEN Crypto Minting Torrent\",',\n            '\"image\": \"',\n            \"data:image/svg+xml;base64,\",\n            Base64.encode(_svgData(tokenId)),\n            '\",',\n            '\"attributes\": ',\n            _attributes(tokenId),\n            \"}\"\n        );\n        return string(abi.encodePacked(\"data:application/json;base64,\", Base64.encode(dataURI)));\n    }\n\n    /**\n        @dev function callable only in proxy contracts from the original one => XENCrypto.claimRank(term)\n     */\n    function callClaimRank(uint256 term) external {\n        require(msg.sender == _original, \"unauthorized\");\n        bytes memory callData = abi.encodeWithSignature(\"claimRank(uint256)\", term);\n        (bool success, ) = address(xenCrypto).call(callData);\n        require(success, \"call failed\");\n    }\n\n    /**\n        @dev function callable only in proxy contracts from the original one => XENCrypto.claimMintRewardAndShare()\n     */\n    function callClaimMintReward(address to) external {\n        require(msg.sender == _original, \"unauthorized\");\n        bytes memory callData = abi.encodeWithSignature(\"claimMintRewardAndShare(address,uint256)\", to, uint256(100));\n        (bool success, ) = address(xenCrypto).call(callData);\n        require(success, \"call failed\");\n    }\n\n    /**\n        @dev function callable only in proxy contracts from the original one => destroys the proxy contract\n     */\n    function powerDown() external {\n        require(msg.sender == _original, \"unauthorized\");\n        selfdestruct(payable(address(0)));\n    }\n\n    /**\n        @dev main torrent interface. initiates Bulk Mint (Torrent) Operation\n     */\n    function bulkClaimRank(uint256 count, uint256 term) public returns (uint256) {\n        bytes memory bytecode = bytes.concat(\n            bytes20(0x3D602d80600A3D3981F3363d3d373d3D3D363d73),\n            bytes20(address(this)),\n            bytes15(0x5af43d82803e903d91602b57fd5bf3)\n        );\n        require(count > 0, \"XENFT: Illegal count\");\n        require(term > 0, \"XENFT: Illegal term\");\n        bytes memory callData = abi.encodeWithSignature(\"callClaimRank(uint256)\", term);\n        address proxy;\n        bool succeeded;\n        uint256 tokenId = count > LIMITED_SERIES_VMU_THRESHOLD && limitedSeriesCounter < LIMITED_SERIES_COUNT\n            ? limitedSeriesCounter\n            : tokenIdCounter;\n        for (uint256 i = 1; i < count + 1; i++) {\n            bytes32 salt = keccak256(abi.encodePacked(i, tokenId));\n            assembly {\n                proxy := create2(0, add(bytecode, 0x20), mload(bytecode), salt)\n                succeeded := call(gas(), proxy, 0, add(callData, 0x20), mload(callData), 0, 0)\n            }\n            require(succeeded, \"XENFT: Error while claiming rank\");\n            if (i == 1) {\n                (, uint256 t, uint256 m, uint256 r, uint256 a, uint256 e) = xenCrypto.userMints(proxy);\n                mintInfo[tokenId] = encodeMintInfo(t, m, r, a, e, false);\n            }\n        }\n        vmuCount[tokenId] = count;\n        _safeMint(msg.sender, tokenId);\n        _ownedTokens[msg.sender].addItem(tokenId);\n        if (count > LIMITED_SERIES_VMU_THRESHOLD && limitedSeriesCounter < LIMITED_SERIES_COUNT) {\n            limitedSeriesCounter++;\n        } else {\n            tokenIdCounter++;\n        }\n        emit StartTorrent(msg.sender, count, term);\n        return tokenId;\n    }\n\n    /**\n        @dev main torrent interface. initiates Mint Reward claim and collection and terminates Torrent Operation\n     */\n    function bulkClaimMintReward(uint256 tokenId, address to) external {\n        require(ownerOf(tokenId) == msg.sender, \"XENFT: Incorrect owner\");\n        require(to != address(0), \"XENFT: Illegal address\");\n        require(!getRedeemed(mintInfo[tokenId]), \"XENFT: Already redeemed\");\n        bytes memory bytecode = bytes.concat(\n            bytes20(0x3D602d80600A3D3981F3363d3d373d3D3D363d73),\n            bytes20(address(this)),\n            bytes15(0x5af43d82803e903d91602b57fd5bf3)\n        );\n        uint256 end = vmuCount[tokenId] + 1;\n        bytes memory callData = abi.encodeWithSignature(\"callClaimMintReward(address)\", to);\n        bytes memory callData1 = abi.encodeWithSignature(\"powerDown()\");\n        for (uint256 i = 1; i < end; i++) {\n            bytes32 salt = keccak256(abi.encodePacked(i, tokenId));\n            bool succeeded;\n            bytes32 hash = keccak256(abi.encodePacked(hex\"ff\", address(this), salt, keccak256(bytecode)));\n            address proxy = address(uint160(uint256(hash)));\n            assembly {\n                succeeded := call(gas(), proxy, 0, add(callData, 0x20), mload(callData), 0, 0)\n            }\n            require(succeeded, \"XENFT: Error while claiming rewards\");\n            assembly {\n                succeeded := call(gas(), proxy, 0, add(callData1, 0x20), mload(callData1), 0, 0)\n            }\n            require(succeeded, \"XENFT: Error while powering down\");\n        }\n        _setRedeemed(tokenId);\n        emit EndTorrent(msg.sender, tokenId, to);\n    }\n\n    /**\n        @dev overrides OZ ERC-721 after transfer hook to allow token enumeration by owner\n     */\n    function _afterTokenTransfer(\n        address from,\n        address to,\n        uint256 tokenId\n    ) internal virtual override {\n        _ownedTokens[from].removeItem(tokenId);\n        _ownedTokens[to].addItem(tokenId);\n    }\n}\n",
    "sourcePath": "/home/negru/xena/XENFT/contracts/XENFT.sol",
    "compiler": {
        "name": "solc",
        "version": "0.8.17+commit.8df45f5f.Emscripten.clang"
    },
    "schemaVersion": "3.4.10",
    "updatedAt": "2022-11-15T13:51:26.113Z",
    "devdoc": {
        "kind": "dev",
        "methods": {
            "approve(address,uint256)": {
                "details": "See {IERC721-approve}."
            },
            "balanceOf(address)": {
                "details": "See {IERC721-balanceOf}."
            },
            "bulkClaimMintReward(uint256,address)": {
                "details": "main torrent interface. initiates Mint Reward claim and collection and terminates Torrent Operation"
            },
            "bulkClaimRank(uint256,uint256)": {
                "details": "main torrent interface. initiates Bulk Mint (Torrent) Operation"
            },
            "callClaimMintReward(address)": {
                "details": "function callable only in proxy contracts from the original one => XENCrypto.claimMintRewardAndShare()"
            },
            "callClaimRank(uint256)": {
                "details": "function callable only in proxy contracts from the original one => XENCrypto.claimRank(term)"
            },
            "constructor": {
                "details": "Creates XENFT contract, writing down immutable address for XEN Crypto main contract and original(self) address to distinguish between proxy clones"
            },
            "decodeMintInfo(uint256)": {
                "details": "decodes MintInfo record and extracts all of its props"
            },
            "encodeMintInfo(uint256,uint256,uint256,uint256,uint256,bool)": {
                "details": "encodes MintInfo record from its props"
            },
            "getAMP(uint256)": {
                "details": "extracts `AMP` prop from encoded MintInfo"
            },
            "getApproved(uint256)": {
                "details": "See {IERC721-getApproved}."
            },
            "getEAA(uint256)": {
                "details": "extracts `EAA` prop from encoded MintInfo"
            },
            "getMaturityTs(uint256)": {
                "details": "extracts `maturityTs` prop from encoded MintInfo"
            },
            "getRank(uint256)": {
                "details": "extracts `rank` prop from encoded MintInfo"
            },
            "getRedeemed(uint256)": {
                "details": "extracts `redeemed` prop from encoded MintInfo"
            },
            "getTerm(uint256)": {
                "details": "extracts `term` prop from encoded MintInfo"
            },
            "isApprovedForAll(address,address)": {
                "details": "See {IERC721-isApprovedForAll}."
            },
            "isLimited(uint256)": {
                "details": "determines if tokenId corresponds to limited series"
            },
            "name()": {
                "details": "See {IERC721Metadata-name}."
            },
            "ownedTokens()": {
                "details": "public getter for tokens owned by address"
            },
            "ownerOf(uint256)": {
                "details": "See {IERC721-ownerOf}."
            },
            "powerDown()": {
                "details": "function callable only in proxy contracts from the original one => destroys the proxy contract"
            },
            "safeTransferFrom(address,address,uint256)": {
                "details": "See {IERC721-safeTransferFrom}."
            },
            "safeTransferFrom(address,address,uint256,bytes)": {
                "details": "See {IERC721-safeTransferFrom}."
            },
            "setApprovalForAll(address,bool)": {
                "details": "See {IERC721-setApprovalForAll}."
            },
            "supportsInterface(bytes4)": {
                "details": "See {IERC165-supportsInterface}."
            },
            "symbol()": {
                "details": "See {IERC721Metadata-symbol}."
            },
            "toU256(bool)": {
                "details": "helper to convert Bool to U256 type and make compiler happy"
            },
            "tokenURI(uint256)": {
                "details": "compliance with ERC-721 standard (NFT); returns NFT metadata, including SVG-encoded image"
            },
            "transferFrom(address,address,uint256)": {
                "details": "See {IERC721-transferFrom}."
            }
        },
        "version": 1
    },
    "userdoc": {
        "kind": "user",
        "methods": {},
        "version": 1
    }
}